:0E0000001FC0FECFFDCFFCCFFBCFFACFF9CF54
:10000E00F8CFF7CFF6CFF5CFF4CFF3CFF2CFF1CFC6
:10001E00F0CFEFCFEECFEDCFECCFEBCF1027E80345
:10002E0064000A00010000100001100001002564A8
:10003E000000F894EE27ECBBF1E0FBBFEBBFE5BF91
:10004E008DE0A2E0BB27ED938A95E9F780E092E080
:10005E00A0E6ED930197E9F7EFE5EDBFE2E0EEBF25
:10006E00C0EED0E000C0E0E0EABBEBBBE7BBE8BB14
:10007E00EFEFE4BBE0E0E5BBE1BBE2BBE3BFE2BF19
:10008E00ECBFEFBDEEBDEDBDECBDE7BDE6BDEBBD1E
:10009E00EABDE9BDE8BDE2BDE5BDE4BDE3BDE9BF36
:1000AE00E5BFE4BFEBB9E0E1EAB9E6E8E0BDE0E0C8
:1000BE00E0BDE3E3E9B9E0E8E8B9E0E0E0BFE6B9C6
:1000CE00EDB9E6BFECE3F0E090D1EDB7FEB73197B6
:1000DE00CAD11F930F9384E049D126960F911F9199
:1000EE00E1E0F0E0E017F10709F404C0002E012A68
:1000FE0029F4E0E0E5BBA4E6B0E097D1E3CFFFCF73
:10010E005F9BFECFECB10895BA93AA931A93A9817F
:10011E00BA81E0E0EC93AB81BC81EC911E2FE03014
:10012E0019F0E0E0EC9302C0EBDF1E2FE12F1881F7
:10013E0025960895FF92BA93AA9324979BD1E0E057
:10014E00F0E0E887F9874E2FE889F9893196E88B38
:10015E00F98B3197E4913E2FE03009F401C148D17B
:10016E0099F0EDB7FEB741D14F9346D14F913E2F47
:10017E00E03011F03DD109F405C044D114F447D15B
:10018E00F1C0EFCF432FEBC0353209F0D5C050E0B0
:10019E00E889F9893591E88BF98B303310F03A33D1
:1001AE0008F007C0AAE05A9F502DE32FE0535E0FD0
:1001BE00EFCF303009F4D4C0EDB7FEB716D14F9360
:1001CE001BD14F912E2FAE2FF6D0E03029F01AD141
:1001DE0014F41DD1C7C0F0CF203009F4B9C0422F9E
:1001EE00503009F45FEFE32FE33671F413D1EDB71E
:1001FE00FEB7FBD04F9300D14F91D801EC9302D1B3
:10020E0014F405D1AFC092C0E33711F503D1E52F39
:10021E005150E030C9F0EDB7FEB7E7D04F93ECD0B8
:10022E004F913E2FE03011F0E3D029F0EBD014F4D3
:10023E00EED098C009C01F930F930F5F1F4FE32F8F
:10024E00AF91BF91EC93E3CFD801E0E0EC936EC099
:10025E006894F1F8E894F2F8E32FE43611F0E936F9
:10026E0019F4E894F1F802C0E53711F42AE008C059
:10027E00E83711F420E104C0E53209F45DC070C026
:10028E00E0E0EE83EF836894F0F8E52F5150E03014
:10029E0009F43FC0EDB7FEB7A8D04F93ADD04F9144
:1002AE003E2FE13228F4AED014F4B1D05BC015C0AD
:1002BE00F1FC08C06894F1F83D3211F4F2F8E5CF84
:1002CE003B3219F3203129F4A32F80D0E03029F0EE
:1002DE0008C0A32F67D0E03021F4F0FC41C0432FBB
:1002EE0018C0313610F0375505C0313410F0375381
:1002FE0001C03053E22FAE81BF81F0E0A8D0DF0104
:10030E00E32FF0E0EA0FFB1FEE83FF83E894F0F893
:10031E00BCCF80D0F2FE05C0EE81FF8194D0EE837B
:10032E00FF83EE81FF81D801ED93FC93E885F9857B
:10033E003196E887F98713C0EDB7FEB756D04F93C5
:10034E005BD04F91E31759F05DD014F460D00AC022
:10035E00E885F985309711F45AD004C001C0F4CE67
:10036E00E885F9858ED06296FF900895FF92F82E5B
:10037E00239784D0DE01119662D08D01E0E0EB83ED
:10038E00EC83DE0115965BD06AD02FD01A930A93B8
:10039E00EBE8F0E02AD0DE011896CCDE76D025967A
:1003AE00FF900895AA93E1E0F991F03310F0FA333B
:1003BE0008F0EE270895AA93E1E0F991F03229F0C2
:1003CE00F93010F0FE3008F0EE270895AA93E1E020
:1003DE00F991F05340F0FA3038F0FF75F750FA30DB
:1003EE0010F0F03108F0EE270895FA93EA9308958D
:1003FE00A32FE1DFE0300895AC85BD85EE85FF8546
:10040E0009950895AA85BB85AC91A0300895EFEFAC
:10041E00FFEF0895EE85FF853497EE87FF87AE8553
:10042E00BF8514960D911C910895109639F080EDAC
:10043E0097E00197F1F7A8951197C9F70895002451
:10044E00AF0DB01D0895F195E195F0400895FA9F16
:10045E00F02DEB9FF00DEA9FE02DF10D0895ED913B
:10046E00FC911197089560E070E07A936A93FA9385
:10047E00EA9308955A934A933A932A931A930A93B6
:10048E0008955D814C813B812A81198108810895EF
:00000001FF
