:0A0000001FC0FECFFDCFFCCFFBCFE9
:10000A00FACFF9CFF8CFF7CFF6CFF5CFF4CFF3CFBA
:10001A00F2CFF1CFF0CFEFCFEECFEDCFECCFEBCFEA
:10002A001027E80364000A00010000100001100014
:10003A00010025640000F894EE27ECBBF1E0FBBF59
:10004A00EBBFE5BF8DE0A2E0BB27ED938A95E9F708
:10005A0080E092E0A0E6ED930197E9F7EFE5EDBFC6
:10006A00E2E0EEBFC0EED0E011C0BA93AA9342D24A
:10007A00C4D114D29F01C1D116D28F01F901EAD19C
:10008A00E00FF11FAF013DD228960895E0E0EABBE8
:10009A00EBBBE7BBE8BBEFEFE4BBE0E0E5BBE1BBF2
:1000AA00E2BBE3BFE2BFECBFEFBDEEBDEDBDECBD11
:1000BA00E7BDE6BDEBBDEABDE9BDE8BDE2BDE5BD14
:1000CA00E4BDE3BDE9BFE5BFE4BFEBB9E0E1EAB9EE
:1000DA00E6E8E0BDE0E0E0BDE3E3E9B9E0E8E8B97D
:1000EA00E0E0E0BFE6B9EDB9E6BFECE3F0E08AD1C3
:1000FA00EDB7FEB73197F7D11F930F9384E03ED146
:10010A0026960F911F91D801B0DFE5BBEECFFFCF46
:10011A005F9BFECFECB10895BA93AA931A93A98173
:10012A00BA81E0E0EC93AB81BC81EC911E2FE03008
:10013A0019F0E0E0EC9302C0EBDF1E2FE12F1881EB
:10014A0025960895FF92BA93AA932497D3D1E0E013
:10015A00F0E0E887F9874E2FE889F9893196E88B2C
:10016A00F98B3197E4913E2FE03009F401C14DD16A
:10017A0099F0EDB7FEB746D14F934BD14F913E2F31
:10018A00E03011F042D109F405C049D114F44CD140
:10019A00F1C0EFCF432FEBC0353209F0D5C050E0A4
:1001AA00E889F9893591E88BF98B303310F03A33C5
:1001BA0008F007C0AAE05A9F502DE32FE0535E0FC4
:1001CA00EFCF303009F4D4C0EDB7FEB71BD14F934F
:1001DA0020D14F912E2FAE2FF6D0E03029F01FD12B
:1001EA0014F422D1C7C0F0CF203009F4B9C0422F8D
:1001FA00503009F45FEFE32FE33671F418D1EDB70D
:10020A00FEB700D14F9305D14F91D801EC9307D196
:10021A0014F40AD1AFC092C0E33711F508D1E52F23
:10022A005150E030C9F0EDB7FEB7ECD04F93F1D0A2
:10023A004F913E2FE03011F0E8D029F0F0D014F4BD
:10024A00F3D098C009C01F930F930F5F1F4FE32F7E
:10025A00AF91BF91EC93E3CFD801E0E0EC936EC08D
:10026A006894F1F8E894F2F8E32FE43611F0E936ED
:10027A0019F4E894F1F802C0E53711F42AE008C04D
:10028A00E83711F420E104C0E53209F45DC070C01A
:10029A00E0E0EE83EF836894F0F8E52F5150E03008
:1002AA0009F43FC0EDB7FEB7ADD04F93B2D04F912E
:1002BA003E2FE13228F4B3D014F4B6D05BC015C097
:1002CA00F1FC08C06894F1F83D3211F4F2F8E5CF78
:1002DA003B3219F3203129F4A32F80D0E03029F0E2
:1002EA0008C0A32F67D0E03021F4F0FC41C0432FAF
:1002FA0018C0313610F0375505C0313410F0375375
:10030A0001C03053E22FAE81BF81F0E0ACD0DF01F3
:10031A00E32FF0E0EA0FFB1FEE83FF83E894F0F887
:10032A00BCCF85D0F2FE05C0EE81FF818FD0EE836F
:10033A00FF83EE81FF81D801ED93FC93E885F9856F
:10034A003196E887F98713C0EDB7FEB75BD04F93B4
:10035A0060D04F91E31759F062D014F465D00AC007
:10036A00E885F985309711F45FD004C001C0F4CE56
:10037A00E885F985C6D06296FF900895FF92F82E17
:10038A002397BCD0DE0111965DD08D01E0E0EB83AE
:10039A00EC83DE01159656D0A2D034D01A930A9374
:1003AA00E1E9F0E02FD0DE011896CCDEAED025963A
:1003BA00FF900895AA93E1E0F991F03310F0FA332F
:1003CA0008F0EE270895AA93E1E0F991F03229F0B6
:1003DA00F93010F0FE3008F0EE270895AA93E1E014
:1003EA00F991F05340F0FA3038F0FF75F750FA30CF
:1003FA0010F0F03108F0EE270895AE81BF81EAE0EF
:10040A00F0E00895FA93EA930895A32FDCDFE03031
:10041A000895AC85BD85EE85FF8509950895AA8561
:10042A00BB85AC91A0300895EFEFFFEF0895EE85FC
:10043A00FF853497EE87FF87AE85BF8514960D91A9
:10044A001C9108950024AF0DB01D0895F195E19512
:10045A00F0400895EE0FFF1FEE0FFF1FEE0FFF1F74
:10046A00EE0FFF1F0895FA9FF02DEB9FF00DEA9F04
:10047A00E02DF10D08950024112490E1AA0FBB1F6D
:10048A00001C111C0E1A1F0A18F40E0E1F1E01C0A2
:10049A00A1609A9599F7FD01D001089512D0EBDF7A
:1004AA000EF4D4DF0895E894B7FF04C0A095B09580
:1004BA0011966894F7FDCADFDEDFFD010EF4C6DF90
:1004CA000895E894F7FF02C0C1DF6894B7FF06C039
:1004DA00A095B095119600F8039400FA0895ED914D
:1004EA00FC911197089560E070E07A936A93FA9309
:1004FA00EA9308955A934A933A932A931A930A933A
:10050A0008955D814C813B812A8119810881089572
:00000001FF
