:080000001FC0FECFFDCFFCCFB5
:10000800FBCFFACFF9CFF8CFF7CFF6CFF5CFF4CFB4
:10001800F3CFF2CFF1CFF0CFEFCFEECFEDCFECCFE4
:10002800EBCF1027E80364000A000100001000016C
:100038001000010025640000F894EE27ECBBF1E005
:10004800FBBFEBBFE5BFF8E1F1BDE1BD8DE0A2E08C
:10005800BB27ED938A95E9F780E092E0A0E6ED935F
:100068000197E9F7EFE5EDBFE2E0EEBFC0EED0E0C3
:1000780010C040D2B3D112D29F01B0D114D28F0197
:10008800F901E8D1E00FF11FAF01FA013AD2289641
:100098000895E0E0EBBBEABBE8BBE7BBE5BBEFEFED
:1000A800E4BBE0E0E2BBE1BBE3BFE2BFECBFEFBD16
:1000B800EEBDEDBDECBDE7BDE6BDEBBDEABDE9BDFE
:1000C800E8BDE2BDE5BDE4BDE3BDE5BFE4BFE9BF12
:1000D800EBB9E0E1EAB9E6E8E0BDE0E0E0BDE3E382
:1000E800E9B9E0E8E8B9E0E0E0BFECE3F0E07BD1B3
:1000F800EDB7FEB73197F7D11F930F9384E031D155
:1001080026960F911F911A930A93B3DFE5BBE4E695
:10011800F0E069D18BD1E9CFFFCF5F9BFECFECB187
:1001280008951A93A981BA81E0E0EC93AB81BC8170
:10013800EC911E2FE03019F0E0E0EC9302C0EDDF07
:100148001E2FE12F1881259608952597D3D1E0E039
:10015800F0E0E887F9874E2F49D13196E98BFA8B81
:100168003197E4913E2FE03009F4F6C042D199F07E
:10017800EDB7FEB738D14F9340D14F913E2FE030C5
:1001880011F037D109F405C03ED114F441D1E6C0CD
:10019800EFCF432FE0C0353209F0CAC050E026D176
:1001A8003591E98BFA8B303310F03A3308F007C0F9
:1001B800AAE05A9F502DE32FE0535E0FF0CF303066
:1001C80009F4CAC0EDB7FEB70ED14F9316D14F91BF
:1001D8002E2FEA93EBD0E03029F015D114F418D182
:1001E800BDC0F0CF203009F4AFC0422F503009F421
:1001F8005FEFE32FE33671F40ED1EDB7FEB7F3D01E
:100208004F93FBD04F91D801EC93FDD014F400D15B
:10021800A5C088C0E33711F5FED0E52F5150E03076
:10022800C9F0EDB7FEB7DFD04F93E7D04F913E2F1F
:10023800E03011F0DED029F0E6D014F4E9D08EC019
:1002480009C01F930F930F5F1F4FE32FAF91BF910B
:10025800EC93E3CFD801E0E0EC9364C0E1E0EA87F7
:10026800E32FE43611F0E93619F4E0E0EA8702C03A
:10027800E53711F42AE008C0E83711F420E104C09A
:10028800E53209F455C068C0E0E0EE83EF83E52F5E
:100298005150E03009F43BC0EDB7FEB7A4D04F93FE
:1002A800ACD04F913E2FE13228F4ADD014F4B0D049
:1002B80055C015C0EA85E03039F43D3219F4EFEF46
:1002C800EA87E5CFE1E0EA87203129F43A9378D04C
:1002D800E03029F006C03A9361D0E03011F4432FA2
:1002E80016C0313610F0375505C0313410F0375389
:1002F80001C03053E22FAE81BF81F0E0B4D0DF01FE
:10030800E32FF0E0EA0FFB1FEE83FF83C0CF83D01B
:10031800EA85AE81BF81F0E0E7FDFFEFA4D0D80108
:10032800ED93FC93E885F9853196E887F98713C042
:10033800EDB7FEB758D04F9360D04F91E31759F0FF
:1003480062D014F465D00AC0E885F985309711F4B5
:100358005FD004C001C000CFE885F985D2D063968C
:100368000895FF92F82E2397C9D0DE0111966AD01E
:100378008D01E0E0EB83EC83DE01159663D0AFD00E
:1003880032D01A930A93E5E9F0E02DD0FE013896B1
:100398002AD0DBDEBAD02596FF900895E1E0F991E6
:1003A800F03310F0FA3308F0EE270895E1E0F99100
:1003B800F03229F0F93010F0FE3008F0EE270895F9
:1003C800E1E0F991F05340F0FA3038F0FF75F7505A
:1003D800FA3010F0F03108F0EE270895AE81BF81B1
:1003E800EAE0F0E00895FA93EA930895E989FA8932
:1003F80008953A93DBDFE0300895ED85FE85F3DF5D
:10040800F5DF09950895AB85BC85AC91A0300895BA
:10041800EFEFFFEF0895EF85F8893497EF87F88BB2
:10042800AF85B88914960D911C910895E991F991B9
:10043800309639F080ED97E00197F1F7A89531975C
:10044800C9F708950024AF0DB01D0895F195E19501
:10045800F0400895EE0FFF1FEE0FFF1FEE0FFF1F76
:10046800EE0FFF1F0895FA9FF02DEB9FF00DEA9F06
:10047800E02DF10D08950024112490E1AA0FBB1F6F
:10048800001C111C0E1A1F0A18F40E0E1F1E01C0A4
:10049800A1609A9599F7FD01D001089512D0EBDF7C
:1004A8000EF4D4DF0895E894B7FF04C0A095B09582
:1004B80011966894F7FDCADFDEDFFD010EF4C6DF92
:1004C8000895E894F7FF02C0C1DF6894B7FF06C03B
:1004D800A095B095119600F8039400FA0895ED914F
:1004E800FC911197089560E070E07A936A93FA930B
:1004F800EA9308955A934A933A932A931A930A933C
:1005080008955D814C813B812A8119810881089574
:00000001FF
