:040000001FC0FECF50
:10000400FDCFFCCFFBCFFACFF9CFF8CFF7CFF6CFA8
:10001400F5CFF4CFF3CFF2CFF1CFF0CFEFCFEECFD8
:10002400EDCFECCFEBCF1027E80364000A0001000A
:10003400001000011000010025640000F894EE2770
:10004400ECBBF1E0FBBFEBBFE5BFF8E1F1BDE1BD07
:100054008DE0A2E0BB27ED938A95E9F780E092E07A
:10006400A0E6ED930197E9F7EFE5EDBFE2E0EEBF1F
:10007400C0EED0E000C0E0E0EBBBEABBE8BBE7BB0E
:10008400E5BBEFEFE4BBE0E0E2BBE1BBE3BFE2BF13
:10009400ECBFEFBDEEBDEDBDECBDE7BDE6BDEBBD18
:1000A400EABDE9BDE8BDE2BDE5BDE4BDE3BDE5BF34
:1000B400E4BFE9BFEBB9E0E1EAB9E6E8E0BDE0E0BE
:1000C400E0BDE3E3E9B9E0E8E8B9E0E0E0BFECE390
:1000D400F0E07AD1EDB7FEB73197B5D11F930F9306
:1000E40084E035D126960F911F91E1E0F0E0E0170E
:1000F400F10709F401C0E0E0E5BBE4E6F0E064D117
:1001040086D1E5CFFFCF5F9BFECFECB108951A9364
:10011400A981BA81E0E0EC93AB81BC81EC911E2F04
:10012400E03019F0E0E0EC9302C0EDDF1E2FE12F88
:1001340018812596089525978DD1E0E0F0E0E887B1
:10014400F9874E2F44D13196E98BFA8B3197E4919C
:100154003E2FE03009F4F6C03DD199F0EDB7FEB77B
:1001640033D14F933BD14F913E2FE03011F032D138
:1001740009F405C039D114F43CD1E6C0EFCF432FC4
:10018400E0C0353209F0CAC050E021D13591E98B85
:10019400FA8B303310F03A3308F007C0AAE05A9FC4
:1001A400502DE32FE0535E0FF0CF303009F4CAC076
:1001B400EDB7FEB709D14F9311D14F912E2FEA938A
:1001C400EBD0E03029F010D114F413D1BDC0F0CF3E
:1001D400203009F4AFC0422F503009F45FEFE32F11
:1001E400E33671F409D1EDB7FEB7EED04F93F6D0F4
:1001F4004F91D801EC93F8D014F4FBD0A5C088C07B
:10020400E33711F5F9D0E52F5150E030C9F0EDB7DF
:10021400FEB7DAD04F93E2D04F913E2FE03011F089
:10022400D9D029F0E1D014F4E4D08EC009C01F93D2
:100234000F930F5F1F4FE32FAF91BF91EC93E3CF69
:10024400D801E0E0EC9364C0E1E0EA87E32FE43610
:1002540011F0E93619F4E0E0EA8702C0E53711F459
:100264002AE008C0E83711F420E104C0E53209F4BB
:1002740055C068C0E0E0EE83EF83E52F5150E030D5
:1002840009F43BC0EDB7FEB79FD04F93A7D04F9171
:100294003E2FE13228F4A8D014F4ABD055C015C0D9
:1002A400EA85E03039F43D3219F4EFEFEA87E5CF1F
:1002B400E1E0EA87203129F43A9378D0E03029F05C
:1002C40006C03A9361D0E03011F4432F16C03136A2
:1002D40010F0375505C0313410F0375301C0305396
:1002E400E22FAE81BF81F0E0A2D0DF01E32FF0E086
:1002F400EA0FFB1FEE83FF83C0CF7ED0EA85AE8179
:10030400BF81F0E0E7FDFFEF92D0D801ED93FC93BD
:10031400E885F9853196E887F98713C0EDB7FEB70C
:1003240053D04F935BD04F91E31759F05DD014F441
:1003340060D00AC0E885F985309711F45AD004C01A
:1003440001C000CFE885F9858CD063960895FF92AB
:10035400F82E239783D0DE01119665D08D01E0E05D
:10036400EB83EC83DE0115965ED069D02DD01A9311
:100374000A93E9E8F0E028D0FE01389625D0DBDEC8
:1003840074D02596FF900895E1E0F991F03310F0D0
:10039400FA3308F0EE270895E1E0F991F03229F0FC
:1003A400F93010F0FE3008F0EE270895E1E0F991FD
:1003B400F05340F0FA3038F0FF75F750FA3010F08F
:1003C400F03108F0EE270895FA93EA930895E98945
:1003D400FA8908953A93E0DFE0300895ED85FE85CB
:1003E400F3DFF5DF09950895AB85BC85AC91A030AA
:1003F4000895EFEFFFEF0895EF85F8893497EF87BD
:10040400F88BAF85B88914960D911C910895E991E4
:10041400F991309639F080ED97E00197F1F7A895BE
:100424003197C9F708950024AF0DB01D0895FA9FC0
:10043400F02DEB9FF00DEA9FE02DF10D0895ED9165
:10044400FC911197089560E070E07A936A93FA93AF
:10045400EA9308955A934A933A932A931A930A93E0
:1004640008955D814C813B812A8119810881089519
:00000001FF
