:0600000020C0FECFFDCF81
:10000600FCCFFBCFFACFF9CFF8CFF7CFF6CFF5CFAE
:10001600F4CFF3CFF2CFF1CFF0CFEFCFEECFEDCFDE
:10002600ECCFEBCF1027E80364000A0001000010B4
:10003600000110000100256425640000F894EE27F5
:10004600ECBBF1E0FBBFEBBFE5BF8DE0A2E0BB2759
:10005600ED938A95E9F780E092E0A0E6ED930197AB
:10006600E9F7EFE5EDBFE2E0EEBFC0EED0E000C09D
:10007600E0E0EABBEBBBE7BBE8BBE4BBE5BBE1BB4F
:10008600E2BBE3BFE2BFECBFEFBDEEBDEDBDECBD35
:10009600E7BDE6BDEBBDEABDE9BDE8BDE2BDE5BD38
:1000A600E4BDE3BDE9BFE5BFE4BFEBB9E8E0EAB90B
:1000B600E6E8E0BDE0E0E0BDE3E3E9B9E0E8E8B9A1
:1000C600E0E0E0BFE6B9EDB9E6BFE0E0C899E1E0FF
:1000D6000E2F1127E0E0C999E1E02E2F3327ECE33C
:1000E600F0E0FA93EA93F801ABD1B7D1F901A8D1C0
:1000F600B4D188E030D12A96A4E6B0E08FD1E5CF1E
:10010600FFCFAA935D9BFECFE881ECB921960895B7
:1001160059D1AA81F6DFA881B981ED91FD91319679
:10012600FE93EE93239608954DD126979BD110E02A
:10013600AC85BD85E0E0F0E0ED93FC93EA89FB89B0
:100146003196EA8BFB8B3197E4912E2FE03009F440
:10015600FCC0E12FE03031F4253211F411E001C08A
:1001660034D1F2C0E130A1F4253211F42ED1EBC026
:1001760012E040E000E02D3211F401E0E5C02B3240
:1001860011F44BE2E1C0203211F440E2DDC002C0BE
:10019600E23039F450E013E0203311F40068D4C0A3
:1001A60003C0E33009F0D0C0203310F02A3308F042
:1001B60007C0AAE05A9F502DE22FE0535E0FC4C03D
:1001C600E22FE33639F408D10AD106D1A481AA93E5
:1001D6000AD1B9C0E33729F40CD10DD1DCD01E2FDA
:1001E60007C0E03749F405D106D1E0D01E2F0860DC
:1001F60002600F7730E02DC0E43611F0E93611F4D5
:10020600046002C0E53729F4EAE2F0E0FDD015E02B
:100216000BC0E83511F4086003C0E83709F093C055
:10022600E4E3F0E0F1D014E002FF11C0E2D0EFD039
:10023600AB85AA2332F4EA85FB85FED0EA87FB87E5
:100246004DE2403011F01F5F01C00B7F02C0D1D0DC
:10025600DED000FD10C0151770F407FF08C002FFBE
:1002660004C00B7F242F115001C020E301C020E2FF
:10027600ACD05150F0CF312F01FF15C0303091F086
:1002860003FF05C0EE81FF812591BED005C0AE817A
:10029600BF812D91AE83BF8398D0503009F0515065
:1002A6003150ECCF47C020E3EE81FF81D2D0E88702
:1002B600F987EE81FF813296A7D0E885F985AA8570
:1002C600BB85AE17BF0750F02F5FA885B985EA85B5
:1002D600FB85EA1BFB0BEA87FB87EFCF2A3328F067
:1002E60003FF02C0295F01C0295D04FD19C0213347
:1002F60020F4A885B985119709F409C0531710F0A1
:1003060000FF01C011C020E207FF0AC020E3006120
:1003160002FF06C00B7F4A9366D0503009F0515059
:1003260054D0503009F051503150A885B9851297F4
:1003360008F0B9CF00FF07C0503029F05150E0E275
:10034600EA9351D0F9CF10E0F9CEAC85BD857DD0CA
:1003560090D064960895FF92F82E269787D0DE01F6
:10036600149666D08D01E0E0EC83ED83EE83EF8397
:10037600DE0118965DD069D0FA93EA931A930A9330
:10038600EBE8F0E0FA93EA93DE011896CDDE75D03D
:100396002896FF90089516D0A991B991EE27FF27C8
:1003A6006D91662311F03196FBCF08950BD0AA27E5
:1003B600BB27E991F9910590002011F01196FBCF2A
:1003C600FD010895BA93AA9308952A93AD85BE8533
:1003D600EF85F88909950895E889F989089534978C
:1003E600E88BF98B0895AD85BE85EF85F88909956B
:1003F6000895F2DFF4CFA889B989149626D0EE8342
:10040600FF83AE81BF810895EE83FF830895A88997
:10041600B98914961AD0EA87FB870895109639F0A1
:1004260080ED97E00197F1F7A8951197C9F7089520
:100436000024AF0DB01D0895F195E195F0400895A3
:100446006F2F660F660B762F0895ED91FC9111972D
:1004560008950590F491E02D08957A936A93FA939E
:10046600EA9308955A934A933A932A931A930A93CE
:1004760008955D814C813B812A8119810881089507
:00000001FF
